:020000040000FA
:0600000049EF11F01200AF
:0600080004EF08F01200F5
:060018000CEF08F01200DD
:0610000049EF11F012009F
:06100800C4EF0DF0120020
:061018000FEF0EF01200C4
:06102A000100D2220000CB
:08103000850000001000000023
:0810380017EC0DF06A6A686A0A
:101040006D8C6D9C6E6AF5EC0CF0DF6A28EC0DF08F
:1010500010E2DF50040DF3CFE9FFF4CFEAFF000EFA
:10106000E926040EEA22EE6AEE6AEE6AEE6ADF2AEA
:10107000EDD7160E706E68A604D0030EBAEC0CF015
:10108000FAD70001736B786B796B7A6B6D98080EE9
:101090006B6F040E6C6F616B606B1AEF0DF017ECE9
:1010A0000DF0A19A0001600507E16DBA05D0686AEC
:1010B00069806988020E606F6850040B07E0695010
:1010C000040B04E0020EBAEC0CF086D86DB266D0C8
:1010D0006850010B14E06950010B11E0ADDF000115
:1010E000040E606F0401200E026F040E036F080EE1
:1010F000016F006B8C0E0013E66A80EC0DF06850F7
:10110000100B07E06950100B04E05DD8040EBAEC38
:101110000CF06850400B0BE06950400B08E047ECC6
:101120000DF0020EC2EC0CF0060EBAEC0CF068509A
:10113000200B04E06950200B01E032D86850020B0C
:101140000AE06950020B07E047EC0DF0E668E6683C
:10115000A6EC0DF06A6A040E0001605D1FE369A64B
:101160001DD0DF6A040EDF5C19E268A617D06CCFD1
:1011700080F0030EBAEC0CF0780E0001801502E14D
:1011800037D80AD0000EE66EE66A800EE66E000ED4
:10119000E66E010EC2EC0CF0DF2AE4D71AEF0DF078
:1011A00070A00ED0DEEC0CF0EF50800808E1E5DB1B
:1011B000EF50840804E1DEEC0CF08C0EEF6E7090C2
:1011C000050EBAEF0CF06984040ED4DB6D82FEECE0
:1011D0000CF0040EC2EF0CF06D92FEEC0CF0030E5E
:1011E000D1DB699468A403D0020EC4DBFBD71200E4
:1011F000FD0E0001801519E17E0E8015E8407F0B81
:10120000040DF3CF63F0F4CF64F0000E6327040EF7
:10121000642363C065F064C066F0657597EC0DF0FB
:1012200002E11BEF09F02DEF09F0FD0E8015040817
:1012300001E11BD81200A1DBEF50800B02E09DDB27
:10124000EF6A00016F6B706B746B756B736B92D888
:10125000D5DB170E97DBEDEF0AF0020E0001705D93
:1012600002E177EF0BF061EF09F0E1DB86DBEF5095
:10127000400B01E0010EDF6E00016B75080E605D32
:1012800009E122C46EFF6E50000802E2100E01D088
:10129000040E606F700513E189EC0DF0D6D9020ED3
:1012A00000016F5D03E169DB840E07D0DF5003E1CD
:1012B00064DBC80E02D061DB880EEF6E01D001D86E
:1012C000B9D37BEC0DF0030EE126020E0001705D38
:1012D00027E16D50100B24E071DBEE52EF500B6EE6
:1012E0000C6A080E0B181CE10C501AE197EC0DF07B
:1012F00017E1E2DBEF50800B13E1DEDB6FEC0DF06A
:10130000DF6AA6DB22E2DF50ABDBDF50EA6A200FA8
:10131000E96E040EEA22E552E750EF6EDF2AF1D7BC
:10132000706BE3DBEF6A040E6B190B6E6CC00CF094
:10133000010E0BC0DBFF020E6CC0DBFF010EDBCF2A
:10134000E9FF020EDBCFEAFFEF6A000178AF0CD0B5
:101350007B517C1107E005D07CC0FAFF00017B5176
:10136000F96EFADF0001789F030EE15C02E2E16AA8
:10137000E55215D304012051600BE842E842E842EF
:10138000E842E842000901E0120021510C0A45E060
:101390000B0A3FE00C0A31E0010A22E00B0A1EE0D2
:1013A000020A1CE0030A18E0080A10E0010A0CE037
:1013B0000F0A08E0030A01E012000001738F080E13
:1013C000606F12006EEF0AF0D0EF0BF00001610EBB
:1013D000716F000E726F0CD0AFEF0AF00EEF0AF0D3
:1013E00024510001716F726B620E7127000E72231F
:1013F0007381010E746F738F12000001738F0401EB
:101400002451EA6A620FE96E000EEA2222C4EFFF5D
:101410001200F4DA160EC2EF0CF012006CDB040EB0
:10142000E1260401220510E120511F0B00090CE107
:101430000001738F030E0401215D04E10001010E20
:101440007F6F02D000017F6B0401225141E12051E6
:101450001F0B02083DE124510F0B000939E0000188
:10146000738F040124BF05D0AEDA670EE926000EA3
:1014700004D0A9DA6B0EE926000EDEDA030E215D38
:1014800003E184DA840E23D024510F0B0C6A700F11
:101490000B6E0F0E0C22020E0BC0DBFF030E0CC0F6
:1014A000DBFF020EDBCFE9FF030EDBCFEAFFEE909E
:1014B000ED5224AF06D06ADAEF6ADF7467DA400EC5
:1014C00006D064DA880EEF6EDF7460DAC80EEF6E55
:1014D000040EE15C02E2E16AE55261D2800E040191
:1014E000205D3CE10001C00E736F04012351030A2B
:1014F0001EE0010A09E0030A2FE10001660E716F88
:10150000200E726F120E22D0C9DA240EF626210E9A
:10151000AFDA020E0001F76A7125F66E7251F722FA
:101520000900F5CF74F00A00F5CF75F01200030E34
:10153000225D0FE2B3DA260EF626210E99DA71C08B
:10154000F6FF72C0F7FF0800F5500001746F756B6D
:1015500012000001736B12000001736B12001BDAA2
:101560000401286B296B20511F0B020A11E0030AAA
:101570000CE0010A22E10001738F040128810001BF
:101580007F051BE10401288318D00001738F15D05B
:101590000001738F040124BF05D015DA670EE92618
:1015A000000E04D010DA6B0EE926000E45DAEED9F3
:1015B000EF50040B02E0010E286F000173AF07D05B
:1015C000280E716F040E726F7381020E746F020E1B
:1015D000E15C02E2E16AE552E2D16D98000173BF7D
:1015E00007D078AF02D0C0DA28D07FDA840E26D0B8
:1015F00078BF2AD0040120AF23D000017451040128
:10160000265D000175510401275904E226C474F0D7
:1016100027C475F01AD80001010E706FA4D9C8D97B
:10162000800EEF6ECBD9EE52080EEF6EC7D957DAA7
:10163000C5D9800EEF6E6DDAA0D9C80EEF6E12001C
:10164000000192DAC80EEF6E1200A5D90001080E53
:10165000745D000E75590DE274C0DEFF75C0DDFFCC
:101660006F5102E1010E03D06F0506E1020E6F6FAC
:1016700003D0080EDE6EDD6A80D9EF927ED9EF903E
:101680007CD9010EDB50EF1278D9EE52DFCFEFFF9D
:10169000000EDB50745F010EDB50755B280E7D6F12
:1016A000040E7E6F73B10FD000DA1BE071C0F6FF3D
:1016B00072C0F7FF712B000E72230800F550A4D9F9
:1016C000F3E2DB06F1D7F1D90CE071C0E9FF72C09B
:1016D000EAFF712B000E7223EF5096D9F4E2DB067D
:1016E000F2D7020EE15C02E2E16AE55258D153D929
:1016F00065D9EE52EFCFDFFFDFCF0BF00B500001CB
:10170000795D000E7A5903E279C0DFFF09D0DF501E
:101710000B6E0C6AE850795D796F0C507A597A6FCC
:10172000010EDB6ADF50F36E010EDBCFF4FFF350E6
:10173000F45C10E2010EDB5093D976C0E9FF77C06C
:10174000EAFF762B000E7723E552E750EF6E010E8D
:10175000DB2AE8D7000ED8807955000E7A550CE2C6
:10176000FCD92CD9EF50400B03E1A6D9C80E02D00A
:10177000A3D9880EEF6E0ED09FD9B1D97B517C11C1
:1017800007E005D07CC0FAFF00017B51F96EFADF5B
:101790000001789F020EE15C02E2E16AE552FFD0AF
:1017A0000001738F22D9010EE66EE66AE66A620EC8
:1017B000E66E000EC3D922C461F00401225104E197
:1017C0000001100E606F12000001200E606F16D92C
:1017D000150EC2EF0CF0DFD8000EDE6E040EDD6ECB
:1017E000FAD8040DF3500B6E0C6A020E0F0B05E0D5
:1017F000D8900C320B32E806FBE1D8900B360C3651
:10180000D8900B360C36D9CFE9FFDACFEAFF0B5070
:10181000EE260C50ED22BAD8EF9EFD0EDB5002E111
:101820007CD901D07FD9EA22DECFEEFFDDCFEDFFFC
:10183000ADD8EF9CABD8040EE926000EEA22EF8C5F
:10184000020EE15C02E2E16AE552A9D0A4D8FE0EE4
:10185000DB500C6A700F0B6E0F0EF4D897D8FD0E8C
:10186000DBCFEFFFDBA402D0E66A0AD9FD0EDBA2D4
:1018700003D0010EE66E04D9020EE15C02E2E16AD9
:10188000E5528DD088D8FE0EDB5004E12ED9840EAF
:10189000EF6E05D0A0D815D99ED8010F12D9020E2F
:1018A000E15C02E2E16AE5527AD075D8FD0EDB50C8
:1018B00002E038D901D031D9BFD868D860D9FB0E41
:1018C000DBCFEEFFFC0EDBCFEDFF60D8EE52FA0E61
:1018D000DBCFEFFF400E5AD8E850EF16880E56D8EF
:1018E000E850EF12FD0EDB5002E01CD901D015D9F3
:1018F000EA22EF74DECF0BF0DDCF0CF00BC0F3FF6C
:101900000CC0F4FF020EE15C02E2E16AE55247D04E
:10191000F2D8010EF36EFC0EDB5004E0D890F336E3
:10192000E806FCE1F31C0B6EFD0EDBCFE9FFFE0EBB
:10193000DBCFEAFF0B50EF1613D11200000160510C
:1019400011E16D6A696A6DB602D06D86FCD700013F
:10195000010E606F160E6F6ED08E3B0E696EA28AFE
:10196000A08AF28E1200A8D8EE52080EEF6EA4D80C
:10197000BFEF0DF0E66E80EF0DF06BC0E9FF6CC0BD
:10198000EAFF1200E66EE66AA6EF0DF0DECFE9FF91
:10199000DDCFEAFF1200AFD8020EE1261200E16EA1
:1019A000DFD0FE0EEA6ADB34FE0BEA36E96E120087
:1019B000200EEE6E040EED6E5CEF0DF063C0E9FFDD
:1019C00064C0EAFF120024510F0BE96EEA6AD89056
:1019D000E936EA361200FD0EDB50E8240D6EFE0EED
:1019E000DB50040DF3500D241200000EE66EE66A83
:1019F000E66A710EE66E0F0E9EEF0DF0000EE66EBB
:101A0000E66AE66EE66A1200E66E7DC0E9FF7EC019
:101A1000EAFF7D2B000E7E23E552E750EF6EDF06D6
:101A2000010E1200280EEE6E040EED6E120063D849
:101A3000E6521200E55294D0EA22EECFDEFFEDCF5F
:101A4000DDFF12000C220BC0DEFF0CC0DDFF120018
:101A5000DF500B6E0C6A080E0B5C000E0C58120067
:101A6000EA6A280FE96E040EEA22EF50E66E1200D1
:101A7000F7220900F5CF71F00A00F5CF72F01200DD
:101A8000FE0EDBCFE6FFA7DEE552E5521200010EA7
:101A9000E66EE66A000EE66EE66A12002251F66E07
:101AA000F76AD890F636F7361200D9CFE9FFDACFC9
:101AB000EAFFEE50ED10120065C0E9FF66C0EAFFD4
:101AC0001200040DF3CF0BF0F4CF0CF0000E0B2638
:101AD000040EB8DF840E5ADFE850EF1212004FD820
:101AE000200EEE6E040EED6E12003DDF61DF8C0EF7
:101AF000EF6EBDEF0CF0D9CFE6FFE1CFD9FF1200BA
:101B0000680EE66E0F0EE66E03DFE552E552E55213
:101B1000120033DF34D812EF0DF043DF670EE926F1
:101B2000000E12003EDF6B0EE926000E120046DFAB
:101B3000EF503C0BE842E8420D081200E66E00EC64
:101B400011F00B6E050EE15E0B50120043EC0FF02E
:101B50000B6E060EE15E0B50120005DF12EF0DF06A
:101B6000E552E7CFD9FF1200020E706F06DFEE528A
:101B7000EF6A03DFC80EEF6EF0DF5CEF0DF0020ED0
:081B8000E926000EEA22120022
:081B8800DACFE4FFE2CFDAFF3F
:101B9000E9CFE4FFEACFE4FFF6CFE4FFF7CFE4FFBD
:101BA000F5CFE4FFF3CFE4FFF4CFE4FFFACFE4FF97
:101BB00000EE00F00B0EE80403E3EECFE4FFFBD7EA
:101BC00000EE0BF0030EE80403E3EECFE4FFFBD7D7
:101BD000E6524FEC08F0E55200EE0DF0030EE8047B
:101BE00003E3E5CFEDFFFBD700EE0AF00B0EE804B0
:101BF00003E3E5CFEDFFFBD7E5CFFAFFE5CFF4FF39
:101C0000E5CFF3FFE5CFF5FFE5CFF7FFE5CFF6FF33
:101C1000E5CFEAFFE5CFE9FFE5CFDAFF1100D8CF46
:101C2000E4FFE0CFE4FFE46EDACFE4FFE652E552F2
:101C3000E5CFDAFFE550E5CFE0FFE5CFD8FF1000B4
:101C4000FED89EEC0CF0BCD8FED70001856B866BED
:101C5000876B886BF28EF28C0001956B966B400E51
:101C600096AF02D0D89003D0955D000E965906E24B
:101C70006CD9EF6A952B000E9623F1D7956B966B76
:101C8000400E96AF02D0D89003D0955D000E9659C5
:101C900010E25BD9EF50E66E400E9525E96E050E19
:101CA0009621EA6EE552E750EF6E952B000E9623D3
:101CB000E7D7120066EC11F00001080E8F6F800E5E
:101CC000906FE66E8FC0E6FFE5EC10F0E552E5524E
:101CD000770EC86E57EF11F0C9CF8BF0C580C5B035
:101CE000FED757EC11F0E00E27D903E1C9CF8BF0F6
:101CF000C69E9951F8E157EC11F0E66A3AD9FDE138
:101D000057EC11F0510EE66E34D9FCE157EC11F0AE
:101D1000C584C5B4FED7550EE66E32EC11F0E5521F
:101D20001200D9CFE6FFE1CFD9FFC580C5B0FED7FD
:101D300057EC11F0E00E00D903E1C9CF8BF0C69E3D
:101D40009951F8E157EC11F0FD0EDBCFE6FF11D908
:101D5000FBE157EC11F0C582C5B2FED757EC11F08C
:101D6000E10EEAD803E1C9CF8BF0C69E9951F8E1A4
:101D700057EC11F0F1D8020EEE1806E1ED5004E137
:101D800061EC11F00501416FE7D8030EEE1806E192
:101D9000ED5004E161EC11F00501426F57EC11F0D8
:101DA000C58AC588C5B8FED757EC11F0C5B8FED7AF
:101DB00057EC11F066EC11F0E552E7CFD9FF1200B5
:101DC000200E0001605D3AE36D50020B01E012004D
:101DD00071DF82DF020EC7D86DDF7EDF030EC3D84E
:101DE00000018551861102E1000E08D085C0E9FF8F
:101DF00086C0EAFFEF50800B01E0010E000901E10F
:101E00008DD800018751881102E1000E08D087C0EB
:101E1000E9FF88C0EAFFEF50800B01E0010E0009E6
:101E20000DE1400EE66E400EE66E050EE66E010E0A
:101E3000E66EA4D8F3CF87F0F4CF88F012000F0E2F
:101E4000C11203DF1CEF08F0120012001200120092
:101E5000C6EF0FF012001E0EE66E010EE66E26ECC7
:101E60000CF0E552E5528EEF0FF06D840001080E84
:101E7000A16F070EA26FA107000EA25BA151A211D4
:101E8000FAE16D941200D9CFE6FFE1CFD9FFFD0E44
:101E9000DBCF06F0FE0EDBCF07F0010E061801E1E6
:101EA000075033E0E868061802E1E86807182BE0FD
:101EB000030E061801E1075024E0040E061801E1A4
:101EC00007501DE0020E061801E1075016E0170E3C
:101ED000061801E107500FE0160E061801E1075041
:101EE00008E0150E061801E1075001E010D0B3DF3D
:101EF0000FD0B0DF0DD0ACDF0BD0A8DF09D0A4DF4E
:101F000007D0A3DF05D0A3DF03D0000001D000D0AD
:101F1000010E00D0E552E7CFD9FF1200400EE66E69
:101F2000000EE66E050EE66EE66A010E27D8F3CFC8
:101F300085F0F4CF86F01200E66E1AEC11F0E5524F
:101F40000001996FFF0E995D1200800E9525E96ED4
:101F5000050E9621EA6E1200D950FD0FE96EFF0EB4
:101F6000DA20EA6E1200E66EE66ADBDEE552E55242
:101F700012001AEC11F0E55200091200E66E55EC61
:0C1F80000CF00B6E050EE15E0B50120021
:041F8C0004012051DB
:101F90001F0B010801E01200245101E01200060E9F
:101FA000215D21E12351230A1BE0010A0CE0030A11
:101FB0001AE10001610517E100018A0E716F200E20
:101FC000726F090E09D0000161050DE10001070ED5
:101FD000716F210E726F1D0E746F756BC00E02D083
:101FE0000001800E736F04012051600BE842E8424B
:101FF000E842E842E842010801E0120021510B0AE0
:102000002AE0080A1DE0090A15E0080A09E00B0A9F
:1020100005E0080A01E0120031EF10F032EF10F095
:102020000001AD0E716F000E726F010E746F756B53
:10203000C10E0FD00001800E736F23C4ADF01200EB
:102040000001AE0E716F000E726F010E746F756B32
:10205000810E736F12000001800E736F22C4AEF008
:0620600012001200120044
:0A2066001201000200000008D80477
:102070003F0002000102000109022900010100C025
:1020800032090400000203000000092111010001CF
:10209000221D0007058103400001070501034000E0
:1020A000010403090434034D006900630072006FEA
:1020B0000063006800690070002000540065006340
:1020C0000068006E006F006C006F006700790020F0
:1020D0000049006E0063002E002E03530069006D5E
:1020E0000070006C0065002000480049004400209A
:1020F000004400650076006900630065002000442C
:102100000065006D006F000600FF0901A1011901C3
:102110002940150026FF0075089540810219012904
:0C212000409102C07820A120A520D92009
:04212C002A0EF66E13
:10213000100EF76E000EF86E00010900F550A86F42
:102140000900F550A96F03E1A86701D03DD009004F
:10215000F550A36F0900F550A46F0900F550A56F65
:1021600009000900F550E96E0900F550EA6E090012
:1021700009000900F550A66F0900F550A76F090086
:102180000900F6CFAAF0F7CFABF0F8CFACF0A3C0C0
:10219000F6FFA4C0F7FFA5C0F8FF0001A65302E1B7
:1021A000A75307E00900F550EE6EA607F8E2A7076F
:1021B000F9D7AAC0F6FFABC0F7FFACC0F8FF00012B
:0A21C000A807000EA95BBFD71200AC
:0621CA00D9CFE6FFDACFD9
:1021D000E6FFE1CFD9FFE2CFDAFF3F0EC716C66AAE
:1021E000C56AFD0EDB50C612FC0EDB50C71293828F
:1021F0009380C68AE552E5CFDAFFE7CFD9FF120018
:10220000FE0EE3CFE9FFFF0EE3CFEAFFE9CFF3FFD6
:10221000EACFF4FFFB0EE35003E1FC0EE35009E0CC
:10222000FB0EE30602E2FC0EE306FD0EE350EE6E4B
:04223000F1D71200D0
:0C223400D9CFE6FFDACFE6FFE1CFD9FFFB
:10224000E2CFDAFFFD0EDB50C96EC6AE02D0FF0E44
:1022500003D0C7B0FED7000EE552E5CFDAFFE7CFD7
:04226000D9FF120090
:0C226400FF0EE3500F6EEF0E01D0F30EE2
:10227000E76EE72E39EF11F00C0E0E6EE76AE72ECF
:102280003FEF11F00E2E3EEF11F00F2E37EF11F051
:0222900012003A
:0E22920013EE00F023EE00F0F86A0A9C96ECC2
:0E22A00010F068EC11F020EC0EF0FBD71200ED
:0222AE00C75017
:1022B000040B01E0010E0B6E1F0EC5140B10F7E1AD
:0222C00012000A
:0A22C200C586C7A0FED7C950120060
:0422CC00C69A12009C
:0222D0001200FA
:0E22D2000000000000000000000000000000FE
:0222E0000000FC
:020000040030CA
:0100000024DB
:010001000EF0
:010002003FBE
:010003001EDE
:010005008179
:010006008178
:010008000FE8
:01000900C036
:01000A000FE6
:01000B00E014
:01000C000FE4
:01000D0040B2
:00000001FF
