:020000040000FA
:0600000036EF11F01200C2
:0600080004EF08F01200F5
:060018000CEF08F01200DD
:0610000036EF11F01200B2
:06100800C4EF0DF0120020
:061018000FEF0EF01200C4
:06102A0001008A22000013
:08103000600000004C0000000C
:0810380017EC0DF06A6A686A0A
:101040006D8C6D9C6E6AF5EC0CF0DF6A28EC0DF08F
:1010500010E2DF50040DF3CFE9FFF4CFEAFF000EFA
:10106000E926040EEA22EE6AEE6AEE6AEE6ADF2AEA
:10107000EDD7160E706E68A604D0030EBAEC0CF015
:10108000FAD70101E56BEA6BEB6BEC6B6D98080E20
:10109000DD6F040EDE6FD36BD26B1AEF0DF017EC21
:1010A0000DF0A19A0101D20507E16DBA05D0686A79
:1010B00069806988020ED26F6850040B07E069509E
:1010C000040B04E0020EBAEC0CF086D86DB266D0C8
:1010D0006850010B14E06950010B11E0ADDF010114
:1010E000040ED26F0401200E026F040E036F080E6F
:1010F000016F006B8C0E0013E66A80EC0DF06850F7
:10110000100B07E06950100B04E05DD8040EBAEC38
:101110000CF06850400B0BE06950400B08E047ECC6
:101120000DF0020EC2EC0CF0060EBAEC0CF068509A
:10113000200B04E06950200B01E032D86850020B0C
:101140000AE06950020B07E047EC0DF0E668E6683C
:10115000A6EC0DF06A6A040E0101D25D1FE369A6D8
:101160001DD0DF6A040EDF5C19E268A617D06CCFD1
:10117000F2F1030EBAEC0CF0780E0101F21502E167
:1011800037D80AD0000EE66EE66AF20EE66E010E61
:10119000E66E010EC2EC0CF0DF2AE4D71AEF0DF078
:1011A00070A00ED0DEEC0CF0EF50800808E1E5DB1B
:1011B000EF50840804E1DEEC0CF08C0EEF6E7090C2
:1011C000050EBAEF0CF06984040ED4DB6D82FEECE0
:1011D0000CF0040EC2EF0CF06D92FEEC0CF0030E5E
:1011E000D1DB699468A403D0020EC4DBFBD71200E4
:1011F000FD0E0101F21519E17E0EF215E8407F0B9C
:10120000040DF3CFD5F1F4CFD6F1000ED527040E9F
:10121000D623D5C1D7F1D6C1D8F1D77597EC0DF04B
:1012200002E11BEF09F02DEF09F0FD0EF2150408A5
:1012300001E11BD81200A1DBEF50800B02E09DDB27
:10124000EF6A0101E16BE26BE66BE76BE56B92D84D
:10125000D5DB170E97DBEDEF0AF0020E0101E25D20
:1012600002E177EF0BF061EF09F0E1DB86DBEF5095
:10127000400B01E0010EDF6E0101DD75080ED25D4D
:1012800009E122C46EFF6E50000802E2100E01D088
:10129000040ED26FE20513E189EC0DF0D6D9020EEF
:1012A0000101E15D03E169DB840E07D0DF5003E15A
:1012B00064DBC80E02D061DB880EEF6E01D001D86E
:1012C000B9D37BEC0DF0030EE126020E0101E25DC5
:1012D00027E16D50100B24E071DBEE52EF500B6EE6
:1012E0000C6A080E0B181CE10C501AE197EC0DF07B
:1012F00017E1E2DBEF50800B13E1DEDB6FEC0DF06A
:10130000DF6AA6DB22E2DF50ABDBDF50EA6A200FA8
:10131000E96E040EEA22E552E750EF6EDF2AF1D7BC
:10132000E26BE3DBEF6A040EDD190B6EDEC10CF03D
:10133000010E0BC0DBFF020EDEC1DBFF010EDBCFB7
:10134000E9FF020EDBCFEAFFEF6A0101EAAF0CD042
:10135000ED51EE1107E005D0EEC1FAFF0101ED51AC
:10136000F96EFADF0101EA9F030EE15C02E2E16A35
:10137000E55215D304012051600BE842E842E842EF
:10138000E842E842000901E0120021510C0A45E060
:101390000B0A3FE00C0A31E0010A22E00B0A1EE0D2
:1013A000020A1CE0030A18E0080A10E0010A0CE037
:1013B0000F0A08E0030A01E012000101E58F080EA0
:1013C000D26F12006EEF0AF0D0EF0BF00101D30ED6
:1013D000E36F010EE46F0CD0AFEF0AF00EEF0AF0EE
:1013E00024510101E36FE46BD40EE327010EE423E3
:1013F000E581010EE66FE58F12000101E58F040122
:101400002451EA6AD40FE96E010EEA2222C4EFFFEA
:101410001200F4DA160EC2EF0CF012006CDB040EB0
:10142000E1260401220510E120511F0B00090CE107
:101430000101E58F030E0401215D04E10101010EAC
:10144000F16F02D00101F16B0401225141E1205101
:101450001F0B02083DE124510F0B000939E0010187
:10146000E58F040124BF05D0AEDAD90EE926010EBE
:1014700004D0A9DADD0EE926010EDEDA030E215DC5
:1014800003E184DA840E23D024510F0B0C6A700F11
:101490000B6E0F0E0C22020E0BC0DBFF030E0CC0F6
:1014A000DBFF020EDBCFE9FF030EDBCFEAFFEE909E
:1014B000ED5224AF06D06ADAEF6ADF7467DA400EC5
:1014C00006D064DA880EEF6EDF7460DAC80EEF6E55
:1014D000040EE15C02E2E16AE55261D2800E040191
:1014E000205D3CE10101C00EE56F04012351030AB8
:1014F0001EE0010A09E0030A2FE10101A60EE36FD5
:10150000200EE46F120E22D0C9DA640EF626210EE8
:10151000AFDA020E0101F76AE325F66EE451F72215
:101520000900F5CFE6F10A00F5CFE7F11200030E4E
:10153000225D0FE2B3DA660EF626210E99DAE3C1D8
:10154000F6FFE4C1F7FF0800F5500101E66FE76B15
:1015500012000101E56B12000101E56B12001BDABC
:101560000401286B296B20511F0B020A11E0030AAA
:101570000CE0010A22E10101E58F0401288101014B
:10158000F1051BE10401288318D00101E58F15D076
:101590000101E58F040124BF05D015DAD90EE92633
:1015A000010E04D010DADD0EE926010E45DAEED97F
:1015B000EF50040B02E0010E286F0101E5AF07D0E8
:1015C000280EE36F040EE46FE581020EE66F020E53
:1015D000E15C02E2E16AE552E2D16D980101E5BF0A
:1015E00007D0EAAF02D0C0DA28D07FDA840E26D046
:1015F000EABF2AD0040120AF23D00101E651040143
:10160000265D0101E7510401275904E226C4E6F1F1
:1016100027C4E7F11AD80101010EE26FA4D9C8D995
:10162000800EEF6ECBD9EE52080EEF6EC7D957DAA7
:10163000C5D9800EEF6E6DDAA0D9C80EEF6E12001C
:10164000010192DAC80EEF6E1200A5D90101080E51
:10165000E65D000EE7590DE2E6C1DEFFE7C1DDFF02
:10166000E15102E1010E03D0E10506E1020EE16F56
:1016700003D0080EDE6EDD6A80D9EF927ED9EF903E
:101680007CD9010EDB50EF1278D9EE52DFCFEFFF9D
:10169000000EDB50E65F010EDB50E75B280EEF6FBC
:1016A000040EF06FE5B10FD000DA1BE0E3C1F6FFE6
:1016B000E4C1F7FFE32B000EE4230800F550A4D9A2
:1016C000F3E2DB06F1D7F1D90CE0E3C1E9FFE4C1B5
:1016D000EAFFE32B000EE423EF5096D9F4E2DB0699
:1016E000F2D7020EE15C02E2E16AE55258D153D929
:1016F00065D9EE52EFCFDFFFDFCF0BF00B500101CA
:10170000EB5D000EEC5903E2EBC1DFFF09D0DF50C7
:101710000B6E0C6AE850EB5DEB6F0C50EC59EC6F04
:10172000010EDB6ADF50F36E010EDBCFF4FFF350E6
:10173000F45C10E2010EDB5093D9E8C1E9FFE9C186
:10174000EAFFE82B000EE923E552E750EF6E010EA9
:10175000DB2AE8D7000ED880EB55000EEC550CE2E2
:10176000FCD92CD9EF50400B03E1A6D9C80E02D00A
:10177000A3D9880EEF6E0ED09FD9B1D9ED51EE11DD
:1017800007E005D0EEC1FAFF0101ED51F96EFADF75
:101790000101EA9F020EE15C02E2E16AE552FFD03C
:1017A0000101E58F22D9010EE66EE66AE66AD40EE3
:1017B000E66E010EC3D922C4D3F10401225104E123
:1017C0000101100ED26F12000101200ED26F16D946
:1017D000150EC2EF0CF0DFD8000EDE6E040EDD6ECB
:1017E000FAD8040DF3500B6E0C6A020E0F0B05E0D5
:1017F000D8900C320B32E806FBE1D8900B360C3651
:10180000D8900B360C36D9CFE9FFDACFEAFF0B5070
:10181000EE260C50ED22BAD8EF9EFD0EDB5002E111
:101820007CD901D07FD9EA22DECFEEFFDDCFEDFFFC
:10183000ADD8EF9CABD8040EE926000EEA22EF8C5F
:10184000020EE15C02E2E16AE552A9D0A4D8FE0EE4
:10185000DB500C6A700F0B6E0F0EF4D897D8FD0E8C
:10186000DBCFEFFFDBA402D0E66A0AD9FD0EDBA2D4
:1018700003D0010EE66E04D9020EE15C02E2E16AD9
:10188000E5528DD088D8FE0EDB5004E12ED9840EAF
:10189000EF6E05D0A0D815D99ED8010F12D9020E2F
:1018A000E15C02E2E16AE5527AD075D8FD0EDB50C8
:1018B00002E038D901D031D9BFD868D860D9FB0E41
:1018C000DBCFEEFFFC0EDBCFEDFF60D8EE52FA0E61
:1018D000DBCFEFFF400E5AD8E850EF16880E56D8EF
:1018E000E850EF12FD0EDB5002E01CD901D015D9F3
:1018F000EA22EF74DECF0BF0DDCF0CF00BC0F3FF6C
:101900000CC0F4FF020EE15C02E2E16AE55247D04E
:10191000F2D8010EF36EFC0EDB5004E0D890F336E3
:10192000E806FCE1F31C0B6EFD0EDBCFE9FFFE0EBB
:10193000DBCFEAFF0B50EF1613D112000101D25199
:1019400011E16D6A696A6DB602D06D86FCD701013E
:10195000010ED26F120E6F6ED08E3B0E696EA28A90
:10196000A08AF28E1200A8D8EE52080EEF6EA4D80C
:10197000BFEF0DF0E66E80EF0DF0DDC1E9FFDEC1D7
:10198000EAFF1200E66EE66AA6EF0DF0DECFE9FF91
:10199000DDCFEAFF1200AFD8020EE1261200E16EA1
:1019A000DFD0FE0EEA6ADB34FE0BEA36E96E120087
:1019B000200EEE6E040EED6E5CEF0DF0D5C1E9FF6A
:1019C000D6C1EAFF120024510F0BE96EEA6AD890E3
:1019D000E936EA361200FD0EDB50E8240D6EFE0EED
:1019E000DB50040DF3500D241200000EE66EE66A83
:1019F000E66A710EE66E0F0E9EEF0DF0000EE66EBB
:101A0000E66AE66EE66A1200E66EEFC1E9FFF0C133
:101A1000EAFFEF2B000EF023E552E750EF6EDF06F2
:101A2000010E1200280EEE6E040EED6E120063D849
:101A3000E6521200E55294D0EA22EECFDEFFEDCF5F
:101A4000DDFF12000C220BC0DEFF0CC0DDFF120018
:101A5000DF500B6E0C6A080E0B5C000E0C58120067
:101A6000EA6A280FE96E040EEA22EF50E66E1200D1
:101A7000F7220900F5CFE3F10A00F5CFE4F11200F7
:101A8000FE0EDBCFE6FFA7DEE552E5521200010EA7
:101A9000E66EE66A000EE66EE66A12002251F66E07
:101AA000F76AD890F636F7361200D9CFE9FFDACFC9
:101AB000EAFFEE50ED101200D7C1E9FFD8C1EAFFEE
:101AC0001200040DF3CF0BF0F4CF0CF0000E0B2638
:101AD000040EB8DF840E5ADFE850EF1212004FD820
:101AE000200EEE6E040EED6E12003DDF61DF8C0EF7
:101AF000EF6EBDEF0CF0D9CFE6FFE1CFD9FF1200BA
:101B0000680EE66E0F0EE66E03DFE552E552E55213
:101B1000120033DF34D812EF0DF043DFD90EE9267F
:101B2000010E12003EDFDD0EE926010E120046DF37
:101B3000EF503C0BE842E8420D081200E66E05EC5F
:101B400011F00B6E050EE15E0B50120061EC0FF010
:101B50000B6E060EE15E0B50120005DF12EF0DF06A
:101B6000E552E7CFD9FF1200020EE26F06DFEE5218
:101B7000EF6A03DFC80EEF6EF0DF5CEF0DF0020ED0
:081B8000E926000EEA22120022
:081B8800DACFE4FFE2CFDAFF3F
:101B9000E9CFE4FFEACFE4FFF6CFE4FFF7CFE4FFBD
:101BA000F5CFE4FFF3CFE4FFF4CFE4FFFACFE4FF97
:101BB00000EE00F00B0EE80403E3EECFE4FFFBD7EA
:101BC00000EE0BF0030EE80403E3EECFE4FFFBD7D7
:101BD000E6524FEC08F0E55200EE0DF0030EE8047B
:101BE00003E3E5CFEDFFFBD700EE0AF00B0EE804B0
:101BF00003E3E5CFEDFFFBD7E5CFFAFFE5CFF4FF39
:101C0000E5CFF3FFE5CFF5FFE5CFF7FFE5CFF6FF33
:101C1000E5CFEAFFE5CFE9FFE5CFDAFF1100D8CF46
:101C2000E4FFE0CFE4FFE46EDACFE4FFE652E552F2
:101C3000E5CFDAFFE550E5CFE0FFE5CFD8FF1000B4
:101C40001CD993829384120EAF6EAB8EAC8AAB8894
:101C50009E9A9D8AF28CF28E9EEC0CF081A220D08E
:101C60009ED90F0EE66EE66A9B0EE66E000E74D9E4
:101C7000160EE66EE66A720EE66E000E6DD989D912
:101C800088D987D9400EE66EE66A8A0EE66E010EA6
:101C90008ED9AAC0E6FF72D97CD9ABC0E6FF6ED957
:101CA00081A425D07CD975D9130EE66EE66A880E1C
:101CB000E66E000E51D96DD946D80001646F01015E
:101CC000026B036B2E0E03AF02D0D89003D0025DDF
:101CD000000E03590CE2840E0225E96E010E032169
:101CE000EA6E64C0EFFF022B000E0323EBD76BD824
:101CF000B5D70001606B616B626B636BF28EF28C27
:101D0000656B666B400E66AF02D0D89003D0655D00
:101D1000000E665906E28A0E6525E96E010E32D97B
:101D2000F1D7656B666B400E66AF02D0D89003D0DA
:101D3000655D000E665906E2440E6525E96E010EEA
:101D400021D9F1D712009EAAFED7AE501200D9CFEA
:101D5000E6FFE1CFD9FFFE0EDB50AD6E9EA8FED7A9
:101D6000E552E7CFD9FF1200D9CFE6FFE1CFD9FF87
:101D70000001656B666BFB0EDBCF0BF0FC0EDBCF5F
:101D80000CF066510C18E8AE02D00C3404D00B50A5
:101D9000655D0C50665913E2FD0EDB5065250F01A1
:101DA000E96EFE0EDB50000166210F01EA6EEF5076
:101DB000E66EE4D80001652B000E6623DCD7E55201
:101DC000E7CFD9FF1200200E0101D25D55E36D501F
:101DD000020B01E0120000016051611102E1000EEE
:101DE00008D060C0E9FF61C0EAFFEF50800B01E05E
:101DF000010E000901E1B4D800016251631102E152
:101E0000000E08D062C0E9FF63C0EAFFEF50800B0C
:101E100001E0010E000930E10101CA6BCB6B400EFD
:101E2000CBAF02D0D89003D0CA5D000ECB5917E2D9
:101E30008A0E00016525E96E010E6621EA6EEF50FB
:101E4000E66E440E6525E96E010E6621EA6EE552E6
:101E5000E750EF6E0101CA2B000ECB23E0D7400EF6
:101E6000E66E440EE66E010EE66E010EE66EA6D834
:101E7000F3CF62F0F4CF63F012000F0EC11239DF1E
:101E80001CEF08F01200120012001200E6EF0FF033
:101E900012001E0EE66E010EE66E26EC0CF0E55208
:101EA000E552B0EF0FF06D840101080ED06F070E00
:101EB000D16FD007000ED15BD051D111FAE16D94F2
:101EC0001200D9CFE6FFE1CFD9FFFD0EDBCF06F040
:101ED000FE0EDBCF07F0010E061801E1075033E0DC
:101EE000E868061802E1E86807182BE0030E0618F8
:101EF00001E1075024E0040E061801E107501DE03F
:101F0000020E061801E1075016E0170E061801E14F
:101F100007500FE0160E061801E1075008E0150EF5
:101F2000061801E1075001E010D0B3DF0FD0B0DF99
:101F30000DD0ACDF0BD0A8DF09D0A4DF07D0A3DF22
:101F400005D0A3DF03D0000001D000D0010E00D0E7
:101F5000E552E7CFD9FF12002AD81BD8C9EF0FF0FE
:101F6000400EE66E040EE66E010EE66EE66A010EA7
:101F700025D8F3CF60F0F4CF61F01200E8DEE5522F
:101F8000C9EF0FF06621EA6EEF6A652B000E66233B
:101F90001200FA0EE66E1FEC11F0E55212000B0E65
:101FA000E66EE66A670EE66E000EACEF0FF0E66EC8
:101FB000DBDEE552E552E552E5521200E66E55ECE5
:0C1FC0000CF00B6E050EE15E0B501200E1
:041FCC00040120519B
:101FD0001F0B010801E01200245101E01200060E5F
:101FE000215D21E12351230A1BE0010A0CE0030AD1
:101FF0001AE10101D30517E10101CA0EE36F200EBA
:10200000E46F090E09D00101D3050DE10101470E6E
:10201000E36F210EE46F1D0EE66FE76BC00E02D07A
:102020000101800EE56F04012051600BE842E84297
:10203000E842E842E842010801E0120021510B0A9F
:102040002AE0080A1DE0090A15E0080A09E00B0A5F
:1020500005E0080A01E0120051EF10F052EF10F015
:102060000101F70EE36F010EE46F010EE66FE76BFF
:10207000C10E0FD00101800EE56F23C4F7F11200ED
:102080000101F80EE36F010EE46F010EE66FE76BDE
:10209000810EE56F12000101800EE56F22C4F8F198
:0620A00012001200120004
:0A20A6001201000200000008D80437
:1020B0003F0002000102000109022900010100C0E5
:1020C000320904000002030000000921110100018F
:1020D000221D0007058103400001070501034000A0
:1020E000010403090434034D006900630072006FAA
:1020F0000063006800690070002000540065006300
:102100000068006E006F006C006F006700790020AF
:102110000049006E0063002E002E03530069006D1D
:102120000070006C00650020004800490044002059
:1021300000440065007600690063006500200044EB
:102140000065006D006F000600FF0901A101190183
:102150002940150026FF00750895408102190129C4
:0C216000409102C0B820E120E5201921C8
:04216C002A0EF66ED3
:10217000100EF76E000EF86E00010900F550B16FF9
:102180000900F550B26F03E1B16701D03DD00900FD
:10219000F550AC6F0900F550AD6F0900F550AE6F0A
:1021A00009000900F550E96E0900F550EA6E0900D2
:1021B00009000900F550AF6F0900F550B06F090034
:1021C0000900F6CFB3F0F7CFB4F0F8CFB5F0ACC05C
:1021D000F6FFADC0F7FFAEC0F8FF0001AF5302E15C
:1021E000B05307E00900F550EE6EAF07F8E2B00714
:1021F000F9D7B3C0F6FFB4C0F7FFB5C0F8FF0001D0
:0A220000B107000EB25BBFD7120059
:06220A00FE0EE3CFE9FF28
:10221000FF0EE3CFEAFFE9CFF3FFEACFF4FFFB0EB7
:10222000E35003E1FC0EE35009E0FB0EE30602E29B
:0E223000FC0EE306FD0EE350EE6EF1D7120039
:02223E00FF0E91
:10224000E3500F6EEF0E01D0F30EE76EE72E26EF90
:1022500011F00C0E0E6EE76AE72E2CEF11F00E2E29
:0C2260002BEF11F00F2E24EF11F01200F4
:04226C0013EE00F07D
:1022700023EE00F0F86A0A9CB6EC10F044EC11F082
:0822800020EC0EF0FBD7120068
:02228800120042
:06228A000000000000004E
:102290000041542B434D47463D310D0041542B43E3
:1022A0004D47533D22585858585858585858582256
:1022B0000D0041542B434E4D493D312C322C302CD6
:1022C000302C300D0041542B435343533D22475390
:0622D0004D220D001A0D65
:020000040030CA
:0100000024DB
:010001000EF0
:010002003FBE
:010003001EDE
:010005008179
:010006008178
:010008000FE8
:01000900C036
:01000A000FE6
:01000B00E014
:01000C000FE4
:01000D0040B2
:00000001FF
